:02000002B0004C
:1040000000400B0050530B00000006000C0005029E
:084010000401E50C00000000B2
:044018006C500B00DD
:10401C0009480A49884208B505D0094A824202D0AB
:10402C00121A00F06BFF0748074A0021121A00F021
:10403C0073FF014808BD00BF38E60320B8520B00DF
:10404C00A8E60320A8E60320EDE7032070B5074E91
:10405C00074C00F011FEA41BA4080025AC4200D1B3
:10406C0070BD56F8043B98470135F7E764520B00D6
:10407C0088520B0000F013B808B500F01DF8BDE82D
:10408C00084000F0B1BD00F015BA00F01BBA007882
:10409C00B0FA80F04009704701230370704708B5EF
:1040AC000121052000F058FE00F018FDBDE8084085
:1040BC004FF4165100F006BD2DE9F3410E2000F02F
:1040CC005CFEDFF86C80194ED8F800308342D4BF08
:1040DC00C8F80030C8F8000033688342ACBF3360C6
:1040EC003060054600F0FAFC3468002C07461ADAFA
:1040FC002D2100F0E9FB61420A22384600F0F3FB67
:10410C00384600F0E4FBFF23D8F800100093326827
:10411C000023284600F0EEF90146052002B0BDE868
:10412C00F04100F041BE2146E6E700BFB4E60320B3
:10413C0038E6032010B5074B074A9A600024C3E900
:10414C000044032000F02AF921460120BDE810406C
:10415C0000F02CB9A8E603200000FFFF08B5024BC5
:10416C001B685B6C019308BD4802030008B5024B49
:10417C001B685B68019308BD1802030008B5024B6D
:10418C001B685B69019308BD1802030008B5024B5C
:10419C001B685B68019308BD2C02030008B5024B39
:1041AC001B689B68019308BD2C02030008B5024BE9
:1041BC001B68DB68019308BD2C02030008B5024B99
:1041CC001B689B6A019308BD2C02030008B5024BC7
:1041DC001B681B6B019308BD2C02030008B5024B36
:1041EC001B689B6F019308BD2C02030008B5024BA2
:1041FC001B681B6A019308BD2802030008B5024B1B
:10420C001B685B6A019308BD2802030008B5024BCA
:10421C001B689B6A019308BD2802030008B5024B7A
:10422C001B68DB6A019308BD2802030008B5024B2A
:10423C001B681B6B019308BD2802030008B5024BD9
:10424C001B685B6B019308BD2802030008B5024B89
:10425C001B681B6C019308BD2802030008B5024BB8
:10426C001B685B69019308BD6402030008B5024B2F
:10427C001B689B68019308BD6802030008B5024BDC
:10428C001B68DB68019308BD6802030008B5024B8C
:10429C001B68DB69019308BD3002030008B5024BB3
:1042AC001B681B6A019308BD3002030008B5024B62
:1042BC001B68DB68019308BD3C02030008B5024B88
:1042CC001B681B69019308BD3C02030008B5024B37
:1042DC001B685B69019308BD3C02030008B5024BE7
:1042EC001B689B69019308BD3C02030008B5024B97
:1042FC001B68DB69019308BD3C02030008B5024B47
:10430C001B681B6A019308BD3C02030008B5024BF5
:10431C001B689B6A019308BD3C02030008B5024B65
:10432C001B681B6C019308BD3C02030008B5024BD3
:10433C001B681B68019308BD4C02030008B5024BB7
:10434C001B685B68019308BD4C02030008B5024B67
:10435C001B681B69019308BD4C02030008B5024B96
:10436C001B685B69019308BD4C02030008B5024B46
:10437C001B689B69019308BD4C02030008B5024BF6
:10438C001B68DB69019308BD4C02030008B5024BA6
:10439C001B681B6A019308BD4C02030008B5024B55
:1043AC001B685B68019308BD2002030008B5024B33
:1043BC001B68DB6A019308BD2002030008B5034BA0
:1043CC001B68D3F88830019308BD0000200203005D
:1043DC0008B5034B1B68D3F89430019308BD00005B
:1043EC002002030008B5024B1B68DB6B019308BD70
:1043FC004402030008B5024B1B685B68019308BDBF
:10440C004002030008B5024B1B689B68019308BD72
:10441C004002030008B5024B1B68DB68019308BD22
:10442C004002030008B5024B1B681B69019308BDD1
:10443C004002030008B5024B1B685B69019308BD81
:10444C004002030008B5024B1B689B69019308BD31
:10445C004002030008B5024B1B68DB69019308BDE1
:10446C004002030008B5024B1B681B6A019308BD90
:10447C004002030008B5024B1B681B6B019308BD7F
:10448C004002030008B5024B1B685B6B019308BD2F
:10449C004002030008B5024B1B681B6C019308BD5E
:1044AC004002030008B5024B1B685B6C019308BD0E
:1044BC004002030008B5024B1B681B68019308BD42
:1044CC001C02030008B5024B1B685B68019308BD16
:1044DC001C02030008B5024B1B681B6C019308BD42
:1044EC001C02030008B5024B1B685B6C019308BDF2
:1044FC001C0203008A4210B507D0441A0298C01A55
:10450C004443501A94FBF0F0184410BD02480023A9
:10451C000360FFF723BE00BFB8E60320002240680B
:10452C001146FFF79FBF002240681146FFF7AABF54
:10453C0040680022FFF79EBF4068002281F0010115
:10454C00FFF788BF002340681A461946FFF77ABF69
:10455C00002340681A461946FFF76CBF00224068DA
:10456C001146FFF75FBF002240681146FFF74ABFB4
:10457C00406800220221FFF74DBF002340681A4615
:10458C00FFF738BF024B03225A60024A1A60704789
:10459C00BCE6032088500B007047F8B5064615465C
:1045AC000C468F18BC4206D0336814F8011B9B686C
:1045BC0030469847F6E72846F8BD007C0022FFF706
:1045CC0015BE007C0021FFF719BE007C0021FFF70F
:1045DC001DBE007C0021FFF721BE007C0021FFF7EF
:1045EC0025BE10B514210446FFF74FFD204610BD23
:1045FC0010B54FF47A73044608460021C4E9011340
:10460C00034B236020741146FFF720FE204610BD9B
:10461C00C4500B00704710B518210446FFF735FD48
:10462C00204610BDF0B5037D062B8DB00E4600F173
:10463C0004074FF0000412D000F1080515F8011D15
:10464C000A22304600F04FF9AF42044419D0002C36
:10465C00F4D02E21304600F037F90444EEE72F2336
:10466C006A4639460A208DF80040FFF7F7FD684688
:10467C0000F088FC33680246DB6869463046984790
:10468C00044620460DB0F0BD10B5054B0446112272
:10469C0040F8043B002100F03FFC204610BD00BF59
:1046AC00EC500B000346074A10B543F8042B01F1FC
:1046BC00100251F8044B43F8044B9142F9D10A789B
:1046CC001A7010BDEC500B0010B59DF8084044EA70
:1046DC00032343EA024242EA016104234160037569
:1046EC0010BD000007B5064B0360CB7800938B78A8
:1046FC004A780978FFF7E8FF03B05DF804FB00BFC8
:10470C00EC500B00014B024A1A607047C4E60320C0
:10471C00F8500B00002340681A46FFF76BBE406848
:10472C0000220221FFF776BE002240681146FFF7F7
:10473C0069BE002240681146FFF774BE0023406832
:10474C001A461946FFF776BE002340681A461946EA
:10475C00FFF778BE40680021FFF79CBE406800213F
:10476C00FFF7A0BE4068002281F00101FFF772BE86
:10477C0040680022FFF77EBE002240681146FFF71A
:10478C0081BE002240681146FFF76CBE2DE9F04354
:10479C0095B014460D460746FFF776FF00211C2204
:1047AC000DA8009100F0B8FB40230C9320466B46FB
:1047BC000CAA0021FFF762FD044600284BD10246EB
:1047CC0001216868FFF72EFE0221804622466868A8
:1047DC00FFF728FE009E81462146002E3BD0002983
:1047EC0039D17368022B03D00A2B11D0F669F4E788
:1047FC00B8F1000FFAD0716906A8043107ADFFF7C4
:10480C0071FF0FCD3C1D0FC42B6823704146EDE7A3
:10481C00B9F1000FEAD07469102201A800F07CFBFA
:10482C0006238DF8143001AD04F108031834186810
:10483C0059682A4603C20833A3421546F7D101A989
:10484C0006A807ADFFF72EFF0FCD3C1D0FC42B683C
:10485C0023704946CAE70098FFF708FD384615B0A3
:10486C00BDE8F083024B034A1A6000225A6070477D
:10487C00C8E6032004510B00F8B506460D468F1808
:10488C000024BD420CD0336815F8011B9B683046E0
:10489C009847031E01DB1C44F3E7002C08BF1C46A1
:1048AC002046F8BD13B50446084659B1019100F0F5
:1048BC0069FB23680199DB680246204602B0BDE81B
:1048CC001040184702B010BD03689B68184738B5F4
:1048DC000D210546FFF7F8FF0A2104462846FFF78D
:1048EC00F3FF204438BD30B58BB00023012A8DF87E
:1048FC00243098BF0A2209AC0D46B1FBF2F101FB42
:10490C00125303F0FF03092B94BF30333733DBB260
:10491C00AA4204F8013DEFD92146FFF7C3FF0BB0C3
:10492C0030BD0000014B00229A607047D0E6032096
:10493C0010B5044608462170FFF7A8FC00236360FD
:10494C00204610BD054B02221A60054B054A9A60A1
:10495C000020C3E90000FFF721BD00BFECE60320F7
:10496C00E0E603200000FFFF024B1A68024B1A60BE
:10497C00704700BF3CE60320F0E60320704741740B
:10498C00704708B5007CFFF7C1FC20EAE07008BD59
:10499C0008B5007CFFF792FC20EAE07008BD08B572
:1049AC00007CFFF79BFC40EAE07008BD08B5007C7A
:1049BC00FFF78CFC40EAE07008BD007CFFF796BC6A
:1049CC0037B5457C04462DB1207C03B0BDE83040A2
:1049DC00FFF76CBC007C0191FFF798FC0028019953
:1049EC00F2DC284603B030BD10B514210446FFF7A5
:1049FC004CFB204610BD000010B54FF47A730446F2
:104A0C00084611460022C4E90123044B236001230C
:104A1C0020746374FFF782FC204610BD5C510B00C0
:104A2C00417470477047704708B50021007CFFF750
:104A3C009DFC40EAE07008BD08B50121007CFFF741
:104A4C0095FC40EAE07008BD08B5007CFFF786FCD9
:104A5C0020EAE07008BD08B5007CFFF777FC20EA7F
:104A6C00E07008BD13B50446007C0191FFF776FC9D
:104A7C000028019901DC607C20B1207CFFF77EFCD2
:104A8C0020EAE07002B010BD007CFFF77FBC10B5CF
:104A9C0014210446FFF7F9FA204610BD10B54FF467
:104AAC007A73044608460021C4E90113044B2360C1
:104ABC000123207463741146FFF738FC204610BDA7
:104ACC008C510B00007C0022FFF738BC10B514226F
:104ADC000446002100F020FA204610BD10B50F4C02
:104AEC0088B003A8FFF7F2FF2178BFF35B8F11F0BA
:104AFC0001010FD120460191FFF7C9FA019948B184
:104B0C0003AA0748FFF7CAFF2046FFF7C5FA054876
:104B1C0000F0EEF9024808B010BD00BFF4E6032027
:104B2C00F8E60320314A0B00002240681146FFF7DB
:104B3C0079BC002240681146FFF794BC0022406803
:104B4C001146FFF79FBC40680022FFF793BC4068FA
:104B5C00002281F00101FFF77DBC002340681A465A
:104B6C001946FFF76FBC002340681A461946FFF739
:104B7C0061BC002240681146FFF744BC406800222B
:104B8C000221FFF747BC002340681A46FFF732BCEE
:104B9C00024B04225A60024A1A6070470CE7032049
:104BAC00BC510B00014B1860704700BF40E603205E
:104BBC0008B50B4B43B1FFF791FF03681B6998478E
:104BCC00002801DDAFF30080064B43B100F06AF919
:104BDC0003681B699847002801DDAFF3008008BD0E
:104BEC00000000000000000008B5FFF7E1FFFFF730
:104BFC00C5FA014B186008BD28E703200548064A92
:104C0C00064908B5121A00F079F9054B054A1A60E5
:104C1C0008BD00BF00F4032004F40320B4520B00C1
:104C2C0000F403201E1C279A07B5002300931A4694
:104C3C006FF07701FFF7CCFB03B05DF804FB0000CD
:104C4C0007B543880A2B08D0502B0BD1094B1B6896
:104C5C004BB103B05DF804EB1847FFF7E5FF03B069
:104C6C005DF804FB002300931A466FF07701FFF701
:104C7C00AFFBF4E718E7032010B512480021FFF74B
:104C8C0031FC114B1A68114B9A42114B0CBF01228B
:104C9C0000221A7001D0FFF7B1FFFFF767FA044644
:104CAC0000F042F90B4B13B12046AFF3008000210A
:104CBC000848FFF797FBBDE8104007480021FFF7B5
:104CCC007DBB00BFB14B0B0000F403201E1C279AC8
:104CDC0014E70320000000004D4C0B00232813B5F3
:104CEC0002D9002002B010BDA0F10B03022B1AD880
:104CFC00174C2178BFF35B8F11F001010BD12046CB
:104D0C000191FFF7C4F9019928B11248FFF710FE81
:104D1C002046FFF7C1F90F4B1878FFF7BFFA0028B0
:104D2C00DFD10120DEE7012809D800F07BF8002153
:104D3C00007CFFF783FA80F00100C0B2D2E709389B
:104D4C000128EED800F0AEF8007CFFF7D7FAF2E7B6
:104D5C001CE7032020E70320232838B504460D4622
:104D6C000AD8FF2908D0FFF7B9FF28B129462046F9
:104D7C00BDE83840FFF712BA38BD0D2810B504460F
:104D8C009CBF0E34A4B22046FFF7A8FF50B10321FC
:104D9C002046FFF7FBF9032804D12046BDE810405C
:104DAC00FFF714BA002010BD38B504460D46FFF7C6
:104DBC0095FFF0B104212046FFF7E8F9042805D14E
:104DCC00A9B22046BDE83840FFF7F8B902212046C9
:104DDC00FFF7DCF902280CD12046FFF7E7F9012890
:104DEC0001D0042805D129462046BDE83840FFF7FC
:104DFC00F5B938BD7047000038B52025142304469A
:104E0C000360856005610649284600F06FF8044987
:104E1C006060284600F06AF8E060204638BD00BFAC
:104E2C00F0510B0030B50E4D2978BFF35B8F11F0AC
:104E3C00010487B011D12846FFF729F968B101A800
:104E4C00FFF7DAFF01AA21460648FFF7D1FB2846F7
:104E5C00FFF722F9044800F04BF8024807B030BDC8
:104E6C002CE7032030E70320014E0B0070470000B5
:104E7C0038B5044614252A46002100F04DF825804B
:104E8C004025074925812846258200F02FF8044942
:104E9C006060284600F02AF8E060204638BD00BF6C
:104EAC00F0510B0030B50E4D2978BFF35B8F11F02C
:104EBC00010487B011D12846FFF7E9F868B101A8C1
:104ECC00FFF7D6FF01AA21460648FFF795FD2846B5
:104EDC00FFF7E2F8044800F00BF8024807B030BDC9
:104EEC0044E7032048E70320794E0B00FFF7CBB8CB
:104EFC00002301461A46184600F04CB80A44914269
:104F0C0000F1FF3300D1704710B511F8014B03F8D5
:104F1C00014F9142F9D110BD02440346934200D196
:104F2C00704703F8011BF9E738B5104B1D68AB6BE4
:104F3C000446B3B91820FFF7BDFA0246A86320B99E
:104F4C000B4B0C484221FFF7C5FA0B490B4BC0E940
:104F5C0000130B4B83600B23838100210120C2E9DA
:104F6C000401AB6B00221C615A6138BD40E6032082
:104F7C00F1510B0008520B000E33CDAB34126DE621
:104F8C00ECDE0500034613F8012B002AFBD1181A9E
:104F9C00013870472DE9F843DFF8B8800646D8F899
:104FAC0000001F460D46914600F056F8254B1C6834
:104FBC0034B9254C1C60254B13B11B68C4F88830E0
:104FCC0063681F2B07DDD8F8000000F047F84FF09E
:104FDC00FF30BDE8F8834EB3D4F8880088B91C4B79
:104FEC0023B9D8F8000000F038F8F0E74FF48470DB
:104FFC00FFF760FA0028F4D00023C0E94033C4F86E
:10500C008800636840F8239001229A4000EB8301EA
:10501C00D0F800311343C0F80031022EC1F8807073
:10502C0002BFD0F804311343C0F804316368D8F8D8
:10503C0000005A1C0233626044F8235000F00EF852
:10504C000020C6E7E8E703205CE70320000000002F
:10505C00C1440B00A4E60320704770477047000062
:10506C001D400B0059400B0081400B0085400B008C
:10507C0000000000000000000000000087450B004D
:10508C007D450B0073450B0069450B005D450B001E
:10509C0051450B0061470B0069470B0045450B0060
:1050AC003D450B0033450B0029450B0099470B0080
:1050BC000000000000000000A5450B00EF450B00B0
:1050CC00C7450B00A7450B00CF450B00D7450B0080
:1050DC00DF450B00E7450B0000000000000000005E
:1050EC0031460B0021460B0023460B00617070000B
:1050FC00000000000000000021470B002B470B00B4
:10510C0035470B003F470B0049470B0055470B0039
:10511C0061470B0069470B0071470B007D470B0083
:10512C0085470B008F470B0099470B0025592D2500
:10513C006D2D25645425483A254D3A2553257A0082
:10514C0061736374696D650000000000000000006D
:10515C0089490B00F5490B00CD490B0085480B0024
:10516C009D490B00B9490B00AB490B00C7490B001B
:10517C008B490B008F490B00000000000000000061
:10518C00334A0B009B4A0B00714A0B0085480B00FD
:10519C00634A0B00354A0B00454A0B00954A0B003D
:1051AC00554A0B002D4A0B000000000000000000C7
:1051BC00934B0B00894B0B007F4B0B00354B0B00BB
:1051CC00734B0B00674B0B0061470B0069470B00DF
:1051DC005B4B0B00534B0B00494B0B003F4B0B0035
:1051EC0099470B00005245454E54206D616C6C6F15
:1051FC006320737563636565646564002F746D70FB
:10520C002F6A656E6B696E732D4743432D31302DBC
:10521C00706970656C696E652D34385F3230323070
:10522C00313132345F313630363138303633392F14
:10523C007372632F6E65776C69622F6E65776C691C
:10524C00622F6C6962632F7374646C69622F726174
:10525C006E642E630000000041410B0019450B00E9
:10526C0091450B0011470B0071480B0031490B00A5
:10527C0051490B0075490B009D4B0B0000000000C1
:04528C00000000001E
:10529000040000001400000003000000474E550009
:1052A000CB9641AA1066950F90631900EAABFAF706
:0452B000FDC7C2AACA
:0452B40000000000F6
:1052B800FF0F00004C510B0044E6032000000000E3
:1052C80000000000000000000000000000000000D6
:1052D80000000000000000000000000000000000C6
:1052E80000000000000000000000000000000000B6
:1052F80000000000000000000000000000000000A6
:105308000000000000000000000000000000000095
:10531800000000000000000000000000ECE703208F
:10532800FFFFFFFF00000102030405060708090A42
:105338000B0C0D0E0F101112131415161718191A3D
:085348001B1C1D1E1F20280084
:045350007856341245
:04000003B000401CED
:00000001FF
